:100000000C945D000C9485000C9485000C94850084
:100010000C9485000C9485000C9485000C9485004C
:100020000C9485000C9485000C9485000C9485003C
:100030000C9485000C9485000C9485000C9485002C
:100040000C9496020C9485000C9464020C943E026D
:100050000C9485000C9485000C9485000C9485000C
:100060000C9485000C94850000000008000201003B
:100070000003040700000000000000000000000072
:10008000250028002B0000000000240027002A0083
:10009000040404040404040402020202020203032E
:1000A0000303030301020408102040800102040836
:1000B0001020010204081020E00211241FBECFEF1F
:1000C000D8E0DEBFCDBF11E0A0E0B1E0E4EAF8E0A7
:1000D00002C005900D92A23FB107D9F722E0A2EF2E
:1000E000B1E001C01D92AC39B207E1F710E0CDE5F7
:1000F000D0E004C02197FE010E944504CC35D10711
:10010000C9F70E944A030C9450040C940000CF924B
:10011000DF92EF92FF920F931F93CF93DF936C01C7
:100120007A018B01C0E0D0E0CE15DF0589F0D8015F
:100130006D918D01D601ED91FC910190F081E02D42
:10014000C6010995892B11F47E0102C02196ECCFDE
:10015000C701DF91CF911F910F91FF90EF90DF903A
:10016000CF900895089580E090E00895FC01538DAC
:10017000448D252F30E0842F90E0821B930B541781
:1001800010F0CF96089501970895FC01918D828D0E
:10019000981761F0828DDF01A80FB11D5D968C91DB
:1001A000928D9F5F9F73928F90E008958FEF9FEFE6
:1001B0000895FC01918D828D981731F0828DE80FA2
:1001C000F11D858D90E008958FEF9FEF0895FC015C
:1001D000918D228D892F90E0805C9F4F821B910929
:1001E0008F73992708958BEF91E00E94E70021E03B
:1001F000892B09F420E0822F0895FC01848DDF0112
:10020000A80FB11DA35ABF4F2C91848D90E0019689
:100210008F739927848FA689B7892C93A089B18978
:100220008C9180648C93938D848D981306C0028882
:10023000F389E02D80818F7D80830895EF92FF9276
:100240000F931F93CF93DF93EC0181E0888F9B8DF9
:100250008C8D981305C0E889F989808185FD24C0BB
:10026000F62E0B8D10E00F5F1F4F0F731127E02E3E
:100270008C8DE8120CC00FB607FCFACFE889F9891B
:10028000808185FFF5CFCE010E94FD00F1CF8B8DDF
:10029000FE01E80FF11DE35AFF4FF0820B8FEA8950
:1002A000FB898081806207C0EE89FF896083E889CD
:1002B000F98980818064808381E090E0DF91CF9133
:1002C0001F910F91FF90EF900895CF93DF93EC0172
:1002D000888D8823C9F0EA89FB89808185FD05C066
:1002E000A889B9898C9186FD0FC00FB607FCF5CFA0
:1002F000808185FFF2CFA889B9898C9185FFEDCFE8
:10030000CE010E94FD00E7CFDF91CF91089580E0FC
:1003100090E0892B29F00E94F30081110C940000D9
:10032000089590E0FC01E859FF4F3491FC01EC5531
:10033000FF4F2491FC01E057FF4FE491EE2309F4B5
:100340003BC0332339F1333091F038F43130A9F028
:10035000323001F584B58F7D12C0373091F03830DE
:10036000A1F03430B9F4809180008F7D03C080917A
:1003700080008F77809380000DC084B58F7784BD17
:1003800009C08091B0008F7703C08091B0008F7D4D
:100390008093B000F0E0EE0FFF1FE458FF4FA591EF
:1003A000B4918FB7F894EC91611103C020952E237E
:1003B00001C02E2B2C938FBF08953FB7F8948091E6
:1003C000F7019091F801A091F901B091FA0126B5D9
:1003D000A89B05C02F3F19F00196A11DB11D3FBF7D
:1003E000BA2FA92F982F8827820F911DA11DB11D0B
:1003F000BC01CD0142E0660F771F881F991F4A9507
:10040000D1F708958F929F92AF92BF92CF92DF92D1
:10041000EF92FF926B017C010E94DD014B015C01B8
:10042000C114D104E104F104F1F00E94DD01DC010A
:10043000CB0188199909AA09BB09883E9340A105F7
:10044000B10570F321E0C21AD108E108F10888EE85
:10045000880E83E0981EA11CB11CC114D104E104D4
:10046000F10419F7DDCFFF90EF90DF90CF90BF90B0
:10047000AF909F908F9008950E944B041F920F920F
:100480000FB60F9211242F933F934F935F936F9367
:100490007F938F939F93AF93BF93EF93FF938BEFD4
:1004A00091E00E94FD00FF91EF91BF91AF919F916C
:1004B0008F917F916F915F914F913F912F910F900D
:1004C0000FBE0F901F9018951F920F920FB60F92AC
:1004D00011242F938F939F93EF93FF93E0910B023F
:1004E000F0910C028081E0911102F091120282FDE4
:1004F00012C09081809114028F5F8F73209115023A
:10050000821751F0E0911402F0E0E550FE4F958F14
:100510008093140201C08081FF91EF919F918F9190
:100520002F910F900FBE0F901F9018951F920F9252
:100530000FB60F9211242F933F938F939F93AF93F6
:10054000BF938091F3019091F401A091F501B091D6
:10055000F6013091F20123E0230F2D3720F40196AC
:10056000A11DB11D05C026E8230F0296A11DB11DD6
:100570002093F2018093F3019093F401A093F5018D
:10058000B093F6018091F7019091F801A091F901E3
:10059000B091FA010196A11DB11D8093F7019093CE
:1005A000F801A093F901B093FA01BF91AF919F9127
:1005B0008F913F912F910F900FBE0F901F90189524
:1005C0001092FE011092FD0188EE93E0A0E0B0E0F1
:1005D0008093FF0190930002A0930102B093020266
:1005E00084EE91E09093FC018093FB0185EC90E018
:1005F000909308028093070284EC90E090930A02A3
:100600008093090280EC90E090930C0280930B029F
:1006100081EC90E090930E0280930D0282EC90E0CA
:100620009093100280930F0286EC90E09093120258
:100630008093110210921402109215021092160269
:1006400010921702ECEAF0E02491E8E9F0E08491DE
:10065000882399F090E0880F991FFC01EA57FF4F1B
:10066000A591B491FC01E458FF4F859194918FB707
:10067000F894EC91E22BEC938FBF88E090E090939C
:100680009902809398028AEF90E090939B02809366
:100690009A020895789484B5826084BD84B581609F
:1006A00084BD85B5826085BD85B5816085BD80913D
:1006B0006E00816080936E001092810080918100B5
:1006C00082608093810080918100816080938100AD
:1006D000809180008160809380008091B10084606F
:1006E0008093B1008091B00081608093B0008091D0
:1006F0007A00846080937A0080917A00826080938F
:100700007A0080917A00816080937A0080917A00EB
:10071000806880937A001092C100E0910B02F09102
:100720000C0282E08083E0910702F09108021082BF
:10073000E0910902F0910A028FEC8083109213027B
:10074000E0910F02F091100286E08083E0910D02AB
:10075000F0910E02808180618083E0910D02F09122
:100760000E02808188608083E0910D02F0910E027C
:10077000808180688083E0910D02F0910E0280817B
:100780008F7D808357E0F52E8BEF91E00E94E7008C
:10079000181619060CF076C08BEF91E00E94C50088
:1007A000815491098C0143E0000F111F4A95E1F734
:1007B000C0E0D0E0FE01E00FF11FE050FF4F80816C
:1007C00091818130910551F461E0809198020E94FD
:1007D000910160919A0270919B0210C08230910544
:1007E000E9F461E0809198020E94910160919A027F
:1007F00070919B02660F771F660F771F072E000C04
:10080000880B990B0E94020260E0809198020E947E
:10081000910160919A0270919B0222C083309105F0
:1008200079F460E0809198020E94910160919A02AF
:1008300070919B02CB01880F991F680F791F10C020
:100840000497A1F460E0809198020E949101809148
:100850009A0290919B02F89EB001F99E700D1124AE
:10086000072E000C880B990B0E9402022296C830BA
:10087000D10509F09FCF68EB7BE080E090E00E941B
:10088000020282CF0E9487017FCFEE0FFF1F0590EB
:10089000F491E02D099481E090E0F8940C945004D8
:0408A000F894FFCFFA
:1008A400010002000000000002000100010001003C
:1008B400020001000200010002000100010000002A
:1008C400010000000000000001000100020001001E
:1008D400020002000100000001000100010001000B
:1008E40001000100000000000100020002000200FB
:1008F40002000100020000000100020001000100EA
:1009040002000200000000000200010000000000DC
:1009140002000200020000000100020002000100C7
:1009240002000200010002000100020001000000B8
:1009340001000100010000000200000000000000AE
:10094400010001000200000001000100010002009A
:100954000100020002000000020001000100020088
:100964000200010002000200020002000100010076
:10097400030000000000000004000000000000006C
:10098400000000001E018700B6006501E700C500F5
:02099400D90088
:107E0000112484B714BE81FFF0D085E080938100F7
:107E100082E08093C00088E18093C10086E0809377
:107E2000C20080E18093C4008EE0C9D0259A86E02C
:107E300020E33CEF91E0309385002093840096BBD3
:107E4000B09BFECF1D9AA8958150A9F7CC24DD24C4
:107E500088248394B5E0AB2EA1E19A2EF3E0BF2EE7
:107E6000A2D0813461F49FD0082FAFD0023811F036
:107E7000013811F484E001C083E08DD089C08234E0
:107E800011F484E103C0853419F485E0A6D080C0E4
:107E9000853579F488D0E82EFF2485D0082F10E0AE
:107EA000102F00270E291F29000F111F8ED06801E7
:107EB0006FC0863521F484E090D080E0DECF843638
:107EC00009F040C070D06FD0082F6DD080E0C81688
:107ED00080E7D80618F4F601B7BEE895C0E0D1E017
:107EE00062D089930C17E1F7F0E0CF16F0E7DF06D8
:107EF00018F0F601B7BEE89568D007B600FCFDCFD4
:107F0000A601A0E0B1E02C9130E011968C91119780
:107F100090E0982F8827822B932B1296FA010C0160
:107F200087BEE89511244E5F5F4FF1E0A038BF0790
:107F300051F7F601A7BEE89507B600FCFDCF97BE46
:107F4000E89526C08437B1F42ED02DD0F82E2BD052
:107F50003CD0F601EF2C8F010F5F1F4F84911BD097
:107F6000EA94F801C1F70894C11CD11CFA94CF0C13
:107F7000D11C0EC0853739F428D08EE10CD085E9AC
:107F80000AD08FE07ACF813511F488E018D01DD067
:107F900080E101D065CF982F8091C00085FFFCCF94
:107FA0009093C60008958091C00087FFFCCF809118
:107FB000C00084FD01C0A8958091C6000895E0E648
:107FC000F0E098E1908380830895EDDF803219F02E
:107FD00088E0F5DFFFCF84E1DECF1F93182FE3DFCA
:107FE0001150E9F7F2DF1F91089580E0E8DFEE27F6
:047FF000FF270994CA
:027FFE00040479
:0400000300007E007B
:00000001FF
